:020000040800F2
:10000000E80F0020A90100086B3000089F2E0008AF
:100010006930000881150008A138000800000000C0
:10002000000000000000000000000000F3330008A2
:10003000D317000800000000F1330008F533000872
:10004000C3010008C3010008C3010008C301000880
:10005000C3010008C3010008C3010008C301000870
:10006000C3010008C3010008C3010008C301000860
:10007000C3010008C3010008C30100089D17000860
:10008000C3010008C3010008C3010008C301000840
:10009000C3010008C3010008C3010008C301000830
:1000A000C3010008C3010008C3010008C301000820
:1000B000C3010008C3010008C3010008C301000810
:1000C000C3010008C3010008C3010008C301000800
:1000D000C301000859380008C3010008C301000823
:1000E000D5170008C3010008C301000800F002F89A
:1000F00000F04AF80AA090E8000C82448344AAF178
:100100000107DA4501D100F03FF8AFF2090EBAE875
:100110000F0013F0010F18BFFB1A43F0010318473B
:10012000706A0000906A0000103A24BF78C878C155
:10013000FAD8520724BF30C830C144BF04680C60ED
:10014000704700000023002400250026103A28BF35
:1001500078C1FBD8520728BF30C148BF0B60704739
:10016000662904F02185642900F07A800020704718
:100170001FB500F05DFC04000020002103F086FFA5
:10018000E0601FBD10B510BD00F052FD1146FFF735
:10019000EFFF03F025FC00F070FD03B4FFF7F2FF62
:1001A00003BC00F0B3FD0000094880470948004740
:1001B000FEE7FEE7FEE7FEE7FEE7FEE7FEE7FEE717
:1001C000FEE7FEE704480549054A064B7047000074
:1001D00071340008ED000008E8090020E80F002055
:1001E000E80B0020E80B00200FB41CB5074B06AA53
:1001F0007B4469460090059800F001FC00206946A8
:1002000000F010FC1CBC5DF814FB0000310800007D
:1002100070B5044685690068C10601D5302600E046
:100220002026C00707D070BDD4E901213046904791
:10023000206A401C20626D1EF6D570BD70B5044664
:1002400085690078C00707D170BDD4E9012120205D
:100250009047206A401C20626D1EF6D570BD0000DC
:100260002DE9F0410646002410687529314616A58F
:1002700010D0AFF30080002802DA404213A507E057
:1002800031688A0701D512A502E0490704D511A5F6
:10029000012401E0AFF3008000210A2206F12407C7
:1002A00009E0B0FBF2FCB0FBF2F302FB1C003030C3
:1002B00078541846491C0028F3D123462A46304674
:1002C000BDE8F04100F02EB9000000002D00000054
:1002D0002B000000200000002DE9F05F8946044655
:1002E0004FF0000ADFF824B1FB44C0F820A02046FC
:1002F000E168884700287DD0252806D0D4E901216F
:100300009047206A401C2062F1E700255F462046A6
:10031000E16888472028064607DB312E05D2B81948
:1003200010F8200C08B10543F1E7A80701D525F026
:100330000405C4F81CA00027C4F818A02A2E09D070
:10034000304603F0D2FA38B304EB8708303EC8F8E1
:10035000186019E059F8041B204604EB87029161EC
:10036000E1688847012F064618D1E069002820DAA5
:1003700025F020051DE0D8F8180000EB800006EB02
:1003800040003038C8F818002046E1688847064623
:1003900003F0ABFA0028EED1012F0AD02E2E08D19F
:1003A0002046E16888477F1C0646022F45F020055D
:1003B000C4DBA069002803DA404245F00105A061D2
:1003C000E80701D025F01005A6B1A6F141001928D3
:1003D00002D8203645F400654A463146204625605D
:1003E0004D46FFF7BDFE60B1012807D0ED1D25F099
:1003F000070000E007E000F1080978E705F10409CB
:1004000075E730467AE7206ABDE8F09FFC67000098
:1004100030B505460B462A4613F8014B12F8010B7E
:1004200008B1A042F8D01CB1002802D06D1CF1E741
:10043000284630BD40EA010310B59B070FD1042ABE
:100440000DD310C808C9121F9C42F8D020BA19BA9F
:10045000884201D9012010BD4FF0FF3010BD1AB104
:10046000D30703D0521C07E0002010BD10F8013B59
:1004700011F8014B1B1B07D110F8013B11F8014B80
:100480001B1B01D1921EF1D1184610BD4FF0000286
:100490000429C0F0128010F0030C00F01B80CCF196
:1004A000040CBCF1020F18BF00F8012BA8BF20F804
:1004B000022BA1EB0C0100F00DB85FEAC17C24BF58
:1004C00000F8012B00F8012B48BF00F8012B704702
:1004D0004FF0000200B5134694469646203922BFDD
:1004E000A0E80C50A0E80C50B1F12001BFF4F7AF28
:1004F000090728BFA0E80C5048BF0CC05DF804EB0A
:10050000890028BF40F8042B08BF704748BF20F877
:10051000022B11F0804F18BF00F8012B7047704775
:10052000704770472DE9F0470D46994692460446BC
:1005300000F124080168880604D5E06921F0100163
:10054000216000E00120A84201DD471B00E00027F8
:10055000A1697A1902EB0900081AA0612078C00687
:1005600002D42046FFF754FE002608E0D4E901211A
:100570001AF806009047206A401C761C20624E45FF
:10058000F4DB2078C0060AD52046FFF741FE06E0DE
:10059000D4E9012130209047206A401C2062381E97
:1005A000A7F10107F4DC07E0D4E9012118F8050000
:1005B0009047206A401C2062281EA5F10105F3DC4B
:1005C0002046FFF73BFE2078000602D50220BDE85A
:1005D000F0870120FBE770472DE9FF4F0C461E46D0
:1005E0004FF0FF378BB0D2E90001DDF860800A9050
:1005F0008A46C1F30A5505B93D46002108464FF029
:100600000000BAF1000F00F4400005DA00EB8000B2
:100610004FF4400101EA50004FEA9059B9F1010F3F
:1006200000DDB9460A9850EA4A000ED044F6105050
:10063000A5F2FF3545432F14B8F1000F1ED07542C7
:10064000291E1EDDC9F100021CE0B8F1010F4FF0B8
:10065000000001D0302103E0F24305E02154401CAA
:10066000B042FBDB30460022002121540B99C1F837
:100670000880C1E900200FB0BDE8F08FBD1B6D1CE4
:10068000DEE74A4600DA694206A800F05BFA06ABEC
:1006900093E8070003AB83E8070050460A9900F08F
:1006A0003CFB8DE80700A0F500501F380090039830
:1006B000002D0ADD42F21F014A460844002303A927
:1006C0000390684600F0A5FD09E0A0F500504A46F9
:1006D0001F38002303A90390684600F0AFFD8DE8A2
:1006E00007000004000C03D04FF0FF30410800E089
:1006F0001046B8F1000F03D00022009215461EE00C
:10070000751E05D400F098F9303262556D1EF9D58A
:10071000B3460122084302D000227F1C04E0207867
:10072000302801D100227F1E002A099784D01DE0C5
:10073000112D07DA00F080F9303262556D1C50EA55
:100740000102F5D1084302D00098C8B10EE00021A3
:10075000681E05E0235C625C63542254401E491C01
:100760008142F7DBAB46A81B401E0990002004F82D
:100770000B000B98099AC0F80880C0E9002B7AE7B3
:1007800011264FF0000857E72DE9F04F8846044640
:10079000D21D22F0070191B0D1E90001CDE90A0193
:1007A00003F07FF802460B98C00F01D02D2007E020
:1007B0002068810701D52B2002E0202101EAC0003A
:1007C000032A099001D0072A05DB0346414620464B
:1007D00000F078F90BE12078800601D5E06900E0AF
:1007E0000620B8F1650F814606D0B8F1660F18D023
:1007F000B8F1670F70D131E00020B9F1110F00900E
:1008000001DB112301E009F101030AAA01A90CA8E7
:10081000FFF7E2FEDDE90C70002609F101058346D1
:1008200047E001204B4600904FF000470AAA01A97B
:100830000CA8FFF7D1FEDDE90DB00C995D4600264E
:1008400010B909F101000D18B9EB050003D4C0F18E
:10085000FF3609F10105A5EB09002BE0B9F1010F05
:1008600001DA4FF001090020B9F1110F009048465C
:1008700001DD112300E003460AAA01A90CA8FFF735
:10088000ABFEDDE90C704D4600268346207800075C
:100890000AD4AB4500DA5D4601A8012D04DD4119FB
:1008A00011F8011C302907D04F4502DA17F1040F67
:1008B00004DA012082460FE06D1EEEE7002F02DC15
:1008C000ED1B3E4403E0781CA84200DD7D1CB81BF4
:1008D00000F1010A4FF000472078000703D4AA4531
:1008E00001DB4FF0FF3A0021B7F1004F0DF1430853
:1008F0008DF8431024D002202B23002F01DA7F42F1
:100900002D230A21021EA0F1010000DC5FB197FB3C
:10091000F1FC97FBF1F201FB1C7C17460CF1300C4B
:1009200008F801CDEEE7A8F1010003702188090560
:1009300001D5452100E06521A0F1010800F8011C66
:1009400009980FA9A1EB0807FF1D00B1012041196B
:1009500001EBEA70A1693844081A401EA0612078B2
:10096000C00602D42046FFF753FC099828B1D4E909
:1009700001219047206A401C20622078C00622D5C1
:100980002046FFF745FC1EE0002E04DBB34502DDE8
:1009900001A8805D00E03020D4E901219047206A61
:1009A000401C2062761CAAF101005FEA000A0AD10D
:1009B00000F03EF8C0680168405CD4E9012190472E
:1009C000206A401C2062281EA5F10105DCDC07E03E
:1009D000D4E9012118F8010B9047206A401C2062DD
:1009E000381EA7F10107F3DC2046FFF727FC0320A0
:1009F00011B041E601694A1C02610878704700B5F0
:100A00008FB0CDE901310021059105497944CDE947
:100A1000031011466846FFF75FFC0FB000BD0000F1
:100A2000E5FFFFFF0A6802F8010B0A60704700004B
:100A300000487047A409002030B5B0F10A024FEA1F
:100A4000900E71F100034EEA817EB0EB0E0061EB77
:100A500091014FEA101E4EEA017E10EB0E0041EBB1
:100A600011114FEA102E4EEA016E10EB0E0041EB11
:100A700011214FEA104E4EEA014E10EB0E0041EBF1
:100A80001141401841F100014FEAD00040EA4170A5
:100A90004FEAD10110EB80054FEA810444EA9074DB
:100AA00044EB01046D1944EB0404521BA3414FF0C5
:100AB000000348BF0A3200D530BD401C41F100019F
:100AC00030BD00002DE9F0411F46044603260168B1
:100AD000072A01F4006004DB08B116A505E016A59D
:100AE00003E008B115A500E015A521F01000206075
:100AF000A069C01EA0610FB1401EA0612046FFF793
:100B000087FB4FB1D4E9012138469047206A401C49
:100B10002062C01C206206E0206AFAE7D4E90121C5
:100B200015F8010B9047761EF8D22046FFF786FB9A
:100B3000BDE8F0814E414E006E616E00494E4600A8
:100B4000696E66002DE9F047814616468AB0354841
:100B500078440DC88DE80D0032487844801C03AC01
:100B60000DC884E80D0041F69B300844372190FB06
:100B7000F1F290FBF1F5A5F1800501FB12041B3C9D
:100B800002D56442012000E00020DFF898A08046F2
:100B90000027FA44AAF1BE0A0EE0E0070AD0324666
:100BA000684607EB470101230AEB810100F046FB91
:100BB0008DE8070064107F1C002CEED1194F7F4494
:100BC000AE3F19E0E80715D007EB04100DF1180A45
:100BD00090E80E008AE80E00C068F04201D1981932
:100BE00008903246012306A903A800F027FB03ABB7
:100BF00083E807006D10641C002DE3D14FF0010362
:100C000032466946B8F1000F03A802D000F001FB9C
:100C100001E000F013FBC9E90001C9F808200AB09F
:100C2000BDE8F08724600000004870478409002078
:100C30007546FFF7F9FFAE4605006946534620F0BA
:100C40000700854618B020B5FFF7BCFABDE8204084
:100C50004FF000064FF000074FF000084FF0000B78
:100C600021F00701AC46ACE8C009ACE8C009ACE82B
:100C7000C009ACE8C0098D46704710B50446AFF313
:100C800000802046BDE81040FFF787BA4FF0013CD6
:100C900050F8042B51F8043B9A4221D1A2EB0C03EB
:100CA000934313EACC1317D150F8042B51F8043BAB
:100CB0009A4215D1A2EB0C03934313EACC130BD148
:100CC00050F8042B51F8043B9A4209D1A2EB0C03D3
:100CD000934313EACC13DBD04FF00000704700BF02
:100CE000D01A01BAB1FA81F101F0180122FA01F02B
:100CF000CB40C1F12001DBB2C0B2C01A2CFA01F323
:100D0000D11A914311EAC311E6D170470149182065
:100D1000ABBEFEE72600020070475FEA400C08BF4A
:100D200091F0000F4FEA8C234FEAC12243EA515160
:100D30004FEA1C5018BF00F5F0404FEA300018BFD2
:100D400041F000415FEA6C5C00F02980BCF1FF3F9C
:100D500008BF40F080407047130C06BF12044FF0EC
:100D6000100C4FF0000C130E04BF12020CF1080C13
:100D7000130F04BF12010CF1040C930F04BF920077
:100D80000CF1020CD30F04BF52000CF1010C114600
:100D90004FF00002A0F11F00A0EB0C00704711F013
:100DA000004F08BF704731F000413FF4D5AF0B0C46
:100DB00006BF09044FF0100C4FF0000C0B0E04BFDF
:100DC00009020CF1080C0B0F04BF09010CF1040C13
:100DD0008B0F04BF89000CF1020CCB0F04BF49003C
:100DE0000CF1010CCCF12003A0EB0C0022FA03F370
:100DF00002FA0CF241EA030100F10100704720F011
:100E00007F4C80EA030023F07F47ACEB070303F538
:100E10007C5300F0004003F1FF032DE980494FEAC5
:100E2000154B09B44FEA144325EA0B4E24EA034854
:100E30000FF2042606EB132749083E785FEA3202D8
:100E400003FB0667C7F5000707FB06F64FEA5437B2
:100E50004FEAD64606F1020607FB066CCCF1005CB1
:100E60004FEA1C472CEA074C07FB06F40CFB06F57F
:100E700004EB15464FEA961634BF00204FF00040B1
:100E80004FEAD13706FB07FC4FEA1C4C0CFB0BF773
:100E9000D21B03FB0CF761EB07010CFB0EF7B0EB69
:100EA000074072EB17420CFB08F734BFA2EB074276
:100EB000B2EB074261EB17414FEA0C444FEA91074E
:100EC00006FB07FC4FEA1C4C0CFB0BF7B0EBC740D2
:100ED00072EB573203FB0CF734BFA2EBC742B2EB05
:100EE000C74261EB57310CFB0EF7B0EBC70072EB5A
:100EF00057720CFB08F734BFA2EBC702B2EBC70274
:100F000061EB5771039F4FEA816141EA921104EB53
:100F1000CC044FEAD1374FEA826206FB07FC42EA73
:100F200090124FEA80604FEA1C4C0CFB0BF7D21B6F
:100F300003FB0CF761EB07010CFB0EF7B0EB07406E
:100F400072EB17420CFB08F734BFA2EB0742B2EB7F
:100F5000074261EB17414FEA8C554FEA910704EBCA
:100F60009C2406FB07FC4FEA1C4C0CFB0BF7B0EB78
:100F7000C74072EB573203FB0CF734BFA2EBC742FA
:100F8000B2EBC74261EB57310CFB0EF7B0EBC70079
:100F900072EB57720CFB08F734BFA2EBC702B2EB3F
:100FA000C70261EB577115EB4C254FEA816141EAAD
:100FB00092114FEA82624FEAD13742EA901206FB61
:100FC00007FC44F100044FEA80604FEA1C4C0CFB24
:100FD0000BF7D21B03FB0CF761EB07010CFB0EF7C1
:100FE000B0EB074072EB17420CFB08F734BFA2EBE3
:100FF0000742B2EB074261EB174115EB1C154FEAB4
:10100000813141EA92414FEA823242EA90424FEA0C
:1010100080304FEA0C7644F1000448EA03434EEA7C
:101020000B484FF0000EB2EB080C71EB030724BF26
:10103000624639464EEB0E0E4FF0000B001852413F
:1010400049414BEB0B0BB2EB080C71EB03077BF147
:10105000000B24BF624639464EEB0E0E4FF0000BDC
:101060000018524149414BEB0B0BB2EB080C71EBF2
:1010700003077BF1000B24BF624639464EEB0E0E90
:1010800051EA020718BF46F0010616EB0E7655F13D
:10109000000254F1000103D5BDE88901BDE80088D4
:1010A000BDE88901BDE80048B619524141EB010194
:1010B000A3F10103704780807F7E7D7C7B7A797805
:1010C000777676757473727171706F6E6E6D6C6C0D
:1010D0006B6A6A69686867666665646463636261AF
:1010E0006160605F5F5E5E5D5D5C5C5B5B5A5A5930
:1010F000595858575756565555555454535352529C
:101100005251515050504F4F4F4E4E4D4D4D4C4CF3
:101110004C4B4B4B4A4A4A4949494848484747473C
:101120004746464645454544444444434343434279
:10113000424242414141002B9C4630D477002BD0A3
:101140001CB54FEA370703B44FF010004FF0100101
:10115000BAF1000F06D0BCF1000FDCBF40F0080070
:1011600040F008014FF000000FBCBDE810400BF14B
:10117000010BBBF1010F08BF5FEA170722BF12F195
:10118000010211F101014FF0004143F1000300F0B1
:10119000004043EA00007047F9D35708D0E746EA19
:1011A000064613F1400F4FEA16461FDD13F1200FDC
:1011B000DFBF16430A46002120335B42BED0C3F195
:1011C000200746EA064602FA07F74FEA164646EABD
:1011D0000706C3F1200722FA03F201FA07F721FA02
:1011E00003F14FF0000342EA0702A7E746EA0206CE
:1011F00046EA06464FEA164646EA0106BCBF46EAFC
:101200000646360C4FF000034FF000024FF000018D
:1012100094E72DE9804C9A46934670B491E83800E3
:1012200007C831EA400C48BF34EA430C03D5FFF746
:10123000E6FDFFF780FFF0BCBDE8008C2DE9804C97
:101240009A46934670B491E8380007C810F0804F72
:1012500008BF13F0804F03D100F005F8FFF76BFFD4
:10126000F0BCBDE8008C20F07F4780EA030023F04B
:101270007F4C07EB0C03A3F57C5300F00040A3F177
:10128000FE0392F0000F00F0B38095F0000F00F025
:1012900077802DE901494FEA11404FEA144621EACF
:1012A000004800FB06FC24EA064708FB06F607FB9D
:1012B00008F800FB07F718EB06484CEB164C4FEA12
:1012C000124B18EB07484FEA15464CEB174022EA41
:1012D0000B4E0BFB06FC25EA06470EFB06F607FB4A
:1012E0000EFE0BFB07F71EEB064E4CEB164C4FF0B9
:1012F00000061EEB074E4CEB174B18EB0B0840F1AA
:10130000000018EB0E0B58EB000840F100008F1A9C
:101310004FF000013CBFC943661B14BFB5EB040C82
:1013200000213CBFC943F61B4FEA17444EEA8E0E1C
:1013300027EA04454FEA1C4704FB07622CEA074CE6
:1013400005FB07F70CFB05F604FB0CFC16EB074648
:1013500042EB174216EB0C4642EB1C421BEB060617
:1013600058EB0202414146EA9E0601D5BDE80189DB
:10137000B619524141EB0101A3F10103BDE8018916
:101380004FEA14454FEA114724EA054621EA074C83
:1013900005FB07F406FB07F70CFB06F105FB0CFC4D
:1013A00011EB074144EB17444FEA124711EB0C4194
:1013B00044EB1C4422EA074C05FB07F206FB07F747
:1013C0000CFB06F605FB0CFC16EB074642EB17423E
:1013D00016EB0C4642EB1C456A1854F1000148BF5D
:1013E0007047B619524141EB0101A3F10103704767
:1013F00095F0000F37D04FEA11424FEA144721EA27
:10140000024624EA074C02FB07F106FB07F70CFB38
:1014100006F402FB0CFC14EB074441EB17414FEAC6
:10142000154714EB0C4441EB1C4125EA074C02FB29
:1014300007F506FB07F70CFB06F602FB0CFC16EBA8
:10144000074645EB174516EB0C4645EB1C421219B7
:1014500051F1000148BF7047B619524141EB0101FB
:10146000A3F1010370474FEA14454FEA114724EAFC
:10147000054621EA074C05FB07F106FB07F70CFBC5
:1014800006F24FF0000605FB0CFC12EB074241EBA5
:10149000174112EB0C4251EB1C4148BF70479218A8
:1014A00041EB0101A3F101037047000070B5044650
:1014B00000688168C943C90717D1816821F001011B
:1014C000816000F0A5FE05460AE000BF00F0A0FE26
:1014D000401B022804D920688068C043C00706D09A
:1014E00020688068C043C007F0D0002070BDA06AAB
:1014F00040F01000A062E06A40F00100E0620120CC
:1015000070BD0000F8B500260446009600688168AA
:10151000C943C9072DD0816841F001018160164897
:1015200016490068B0FBF1F000E0401E0090002872
:10153000FBD100F06DFE054616E000BF00F068FE2E
:10154000401B022810D920688068C043C0070BD018
:10155000A06A40F01000A062E06A40F00100E06282
:1015600084F824600120F8BD20688068C043C0076B
:10157000E4D10020F8BD00001C00002040420F0014
:10158000FEE7000010B5044601F03EF80349B0FB49
:10159000F1F16143491EFDD210BD000000093D007C
:1015A00010B500F05DF8BDE810404FF47A7000F01F
:1015B000FBBC000010B52820FFF7E4FF4FF40071DA
:1015C000034800F013FE08B1002010BD012010BD3B
:1015D000000C01401FB50A4B4FF40072012120B1ED
:1015E00000200092CDE9010104E00320CDE90021B3
:1015F000CDE902106946184600F008FD1FBD000045
:10160000000C014070B50D4D4FF400742146284682
:1016100000F0ECFD0028F9D02820FFF7B3FF2146A9
:10162000284600F0E3FD002806D02146284600F0B9
:10163000DDFD0028F9D1012070BD0000000C014043
:1016400070B5002425466006040EFFF7DBFF08B1E5
:1016500044F001046D1CEDB2082DF4D3204670BD9A
:1016600070B58EB00025029503950B950C9514214D
:1016700004A80D95FEF72CFF00F07CF8FFF79AFF09
:10168000002857D02C4E4FF400742146304600F00D
:10169000ADFD0028F9D02146304600F0A7FD002816
:1016A000F9D100240DF10806FFF7CAFF3055641C7C
:1016B000E4B2052CF8D39DF808209DF809309DF878
:1016C0000A109DF80B00D4180E1834449DF80C60D5
:1016D000B4422DD1CDE9001018A10BA8FEF784FD6E
:1016E0000120009008230BAA2821002001F02AFEE7
:1016F00001F090FD17480168491C3222016091FBFE
:10170000F2F191B105609DF80B109DF80A00CDE94A
:1017100000019DF809309DF808200FA104A8FEF7EC
:1017200063FD132104A802F0F7FA01200EB070BD8A
:101730000020FBE70220F9E7000C01404448543147
:10174000313A25642E2564252552482025642E250E
:10175000644300002800002044485431313A256495
:101760002E2564252552482025642E2564430D0A24
:101770000000000010B50020FFF72CFF00224FF4FE
:101780000071054800F03FFD142000F00DFCBDE89D
:1017900010400120FFF71EBF000C0140014800F07F
:1017A000F3BA0000C004002030B590F84050012486
:1017B000AC40C56B6C60046863604368102B0368C1
:1017C00003D099600068C26030BD9A600068C16053
:1017D00030BD704710B54FF4805000F00BFC4FF453
:1017E000005000F007FCBDE810404FF4804000F0CE
:1017F00001BC72B6FEE70000F8B50024009490F832
:1018000024202546012A12D0012280F824204A688B
:101810001F23072A0DD20668776B521E02EB820245
:1018200093409F430B6893401F43776319E0022066
:10183000F8BD06680D2A0AD2376BD21F02EB82026E
:1018400093409F430B6893401F43376309E0F76A57
:101850000D3A02EB820293409F430B6893401F4373
:10186000F7620A68072306680A2A0AD3F7680A3A61
:1018700002EB420293409F438B6893401F43F76003
:1018800008E0376902EB420293409F438B68934024
:101890001F4337610A68102A01D0112A20D1124B48
:1018A00002689A4217D193681B0219D4936843F4D3
:1018B000000393600968102912D10C490C4A096889
:1018C000B1FBF2F101EB8101490000E0491E0091FA
:1018D0000029FBD104E0816A41F0200181620124EA
:1018E00080F824502046F8BD002401401C00002050
:1018F00040420F000068C06C704700002DE9F041C5
:101900004FF0000704003D467ED0A06A002628B9AB
:10191000E66284F82460204600F07EF82046FFF757
:10192000C5FDA16AC90600D420B1A06A40F010002C
:10193000A06269E0A16A21F4885141F00201A1622C
:101940006268E169237B0A4347EA43010A43A168CD
:101950004FF48077B94209D0012907D05FF0000128
:1019600094F814C0BCF1010F02D00AE03946F7E741
:10197000F3B1A36A43F02003A362E36A43F00103D7
:10198000E3622368D3F804C02CF4694C4CEA010CE0
:10199000C3F804C021688B68DFF870C003EA0C0349
:1019A00013438B60A168B9420BD0012909D00CE028
:1019B000DFF85CC0A3690CEB43330B4343F40061D5
:1019C000DFE7218A0D05A5F580152168CB6A23F490
:1019D00070032B43CB62216889680E4B19409142FA
:1019E00008D1E662A16A21F0020141F00101A16281
:1019F000BDE8F081A06A20F0020040F01000A06273
:101A0000E06A40F00100E0620120F1E7FDF7E1FF4C
:101A100000E0FFFFFE0E1FFF00B585B00021009122
:101A20000191029103911C4B02681C4803219A42C8
:101A300015D1826942F400728261826902F40072F7
:101A40000492826942F004028261806900F004001D
:101A500004908020CDE900016946114817E0114B40
:101A60009A4216D1826942F480628261826902F4EC
:101A700080620492826942F008028261806900F00B
:101A8000080004900120CDE900016946064800F0F5
:101A9000BDFA05B000BD0000002401400010024066
:101AA0000008014000280140000C01402DE9F843E6
:101AB00000270D460446009700F0AAFB80462068E8
:101AC0008168C90508D5A06A40F02000A06284F8AA
:101AD00024700120BDE8F8834168C90503D4C06AB9
:101AE00010F4700F2AD0022000F030FC3B49096846
:101AF000B1FBF0F62068036939490B424FEA6101F6
:101B00004FEAA1121FD1C3684FEA611C13EA0C0F00
:101B100019D103690B4225D1C068104222D114208B
:101B200023E0681C0AD02DB100F072FBA0EB080086
:101B3000A84203D920680068800725D5206800687E
:101B40008007EED52DE003690B4202D1C168114236
:101B500006D0026923490A4206D1C068084203D16F
:101B6000542002E0292000E0FC204643009816E0C3
:101B7000681C11D02DB100F04BFBA0EB0800A8426F
:101B80000AD90098B04207D2A06A40F00400A062CF
:101B900084F8247003209DE70098401C0090B04218
:101BA000E6D321686FF012000860A06A40F400706C
:101BB000A06220688068C0F3424007280CD1207BD7
:101BC00050B9A06A20F48070A062A06AC00403D457
:101BD000A06A40F00100A06200207BE71C0000200A
:101BE000244992244992240070B5044690F82400B8
:101BF00001280DD0012084F824002046FFF782FC44
:101C000002004FF0000005D084F82400104670BD9B
:101C1000022070BDA16A40F20123994341F4807112
:101C2000A1621F4D23681F49AB4218D10E6816F4FC
:101C3000702F14D0A66A46F48016A6620E68760548
:101C400005D5A66A26F4005646F48056A662A66A12
:101C5000F6040AD5E66A26F00606E66206E0A66AFB
:101C600026F48016A6625E68E9E7E06284F8240044
:101C70006FF00200186020688368C3F34243072BAB
:101C800005D1A84208D1096811F4702F04D08168E9
:101C900041F480118160B9E7816841F4A001F9E75E
:101CA000002801400424014010B590F821100022C2
:101CB000022905D00421816380F82020012010BD75
:101CC00001680B6823F00E030B6001680B6823F0BA
:101CD00001030B6090F84030C46B012101FA03F35B
:101CE000636080F8211080F82020104610BD0000AD
:101CF00010B590F821100024022903D0042181633B
:101D000001243DE001680A6822F00E020A600168C1
:101D10000A6822F001020A601A4A0168914201D160
:101D2000012121E0174A1432914201D110211BE018
:101D3000144A2832914201D1891515E0114A3C32EA
:101D4000914201D189140FE00E4A5032914202D1E2
:101D50004FF4803108E00B4A6432914202D14FF4D3
:101D6000801101E04FF08071064A083A516001216C
:101D700080F82110002180F82010416B01B18847C4
:101D8000204610BD080002402DE9F05FC16B0C68D1
:101D900001680B68D0F840C0042202FA0CF2494DE9
:101DA000DFF824A1494E4A4FDFF828B1DFF828E1D7
:101DB00022422CD05A072AD50A68920603D40A6810
:101DC00022F004020A600168A94201D1042219E04C
:101DD000514501D1402215E0B14202D14FF4806259
:101DE00010E0B94202D14FF480420BE0594502D1D4
:101DF0004FF4802206E0714502D14FF4800201E0E9
:101E00004FF080622F4908394A60C16A3BE04FF0C9
:101E1000020808FA0CF818EA040F4FF000094FF016
:101E2000010235D05FEA837832D50B689B0605D472
:101E30000B6823F00A030B6080F821200168A94297
:101E400001D1022219E0514501D1202215E0B14211
:101E500002D14FF4007210E0B94202D14FF40052A7
:101E60000BE0594502D14FF4003206E0714502D132
:101E70004FF4001201E04FF00072124908394A6035
:101E800080F82090816A00291AD0BDE8F05F0847E9
:101E9000082505FA0CF5254212D01B0710D50B6852
:101EA00023F00E030B6090F84010C36B02FA01F1AF
:101EB0005960826380F8212080F82090016BE2E76E
:101EC000BDE8F09F080002401C00024030000240C4
:101ED00044000240580002406C00024030B528B374
:101EE00008C8134914221944B1FBF2F18900C163F7
:101EF00010498163022141771A6843F6F0718A43E1
:101F0000D0E900142143D0E902452C432143046960
:101F1000214344692143846921431143196000210D
:101F20004163012242770177084630BD012030BD70
:101F3000F8FFFDBF0000024070B5044690F8200095
:101F4000002501280CD0012084F8200094F821609D
:101F50000020012E06D084F820000225284670BDFE
:101F6000022070BD022684F82160A0632068066804
:101F700026F0010606602046FFF716FCE06A0028FE
:101F80002068016802D041F00E0106E021F0040152
:101F900001602068016841F00A0101602068016861
:101FA00041F001010160D9E770B5044600F030F955
:101FB0000546601C02D004480078044400F028F96B
:101FC000401BA042FAD370BD100000200849B0F5B4
:101FD000805F08D0B0F5005F07D0B0F5804F01D129
:101FE0000020087070470220FBE70120F9E700009D
:101FF0000C000020044910B50A68024202D00860B3
:10200000FFF7E4FF10BD0000140401402DE9F84F74
:10201000DFF8B8910024A9F1040B23460F2709F13A
:10202000040AABF1040EC9E00125A5402A40AA42EA
:102030007DD1674ED1F804C0ACEB0608B44532D070
:1020400014DCBCF1030F3AD009DCBCF1000F2AD03C
:10205000BCF1010F1CD0BCF1020F31D11DE0BCF16D
:10206000110F17D0BCF1120F2AD119E0B8F5881F53
:1020700019D006DCB8F5803F15D0B8F5801F1FD108
:1020800011E0B8F5001F0ED0B8F5041F18D10AE012
:10209000CB6815E0CB681B1D12E0CB6808330FE05E
:1020A000CB680C330CE08B682BB1012B4FF008038D
:1020B00003D0456104E0042302E0056100E0002351
:1020C000FF2A01D8064601E000F104064FEA840524
:1020D00001D9A5F12005D6F8008007FA05FC28EA09
:1020E0000C0803FA05F548EA0508C6F800804D68B3
:1020F000ED0062D5374DAE6946F00106AE61AD69BF
:1021000024F0030605F001050095334D06EB050CA0
:10211000DCF80850A607360F07FA06F825EA080586
:10212000DFF8B880404503D14FF0000817E044E0E5
:10213000DFF8AC80404502D14FF001080FE0DFF836
:10214000A480404502D14FF0020808E0DFF89880F3
:10215000404502D14FF0030801E04FF0040808FAAF
:1021600006F848EA0508CCF808804D68D9F8006000
:10217000ED024D4601D5164300E096432E604D68B2
:10218000DAF80060AD02554601D5164300E09643EB
:102190002E604D68DBF80060AD035D4601D5164347
:1021A00000E096432E604D68DEF80060ED03754652
:1021B00001D5164300E096432E60641C0D682A4644
:1021C000E5407FF431AFBDE8F88F0000080401401E
:1021D0000000111000100240000001400008014002
:1021E000000C0140001001400014014080680840CC
:1021F00000D001207047C26821EA02030A4043EA86
:102200000241016170470AB1016170470904FBE7AF
:102210000148806870470000100000200248816873
:10222000027811448160704710000020074810B503
:10223000016841F010010160032000F075F80F20E3
:1022400000F006F800F024F8002010BD0020024045
:1022500070B50D4D04464FF47A712878B1FBF0F05B
:102260000A490968B1FBF0F000F0AAFB48B9102C4C
:1022700007D200222146501E00F036F800206C6084
:1022800070BD012070BD0000100000201C00002067
:102290000C4808B5816941F001018161816901F053
:1022A00001010091C16941F08051C161C06900F034
:1022B000805000900448416821F0E06141F00071D5
:1022C000416008BD0010024000000140002809DB09
:1022D00000F01F02012191404009800000F1E02040
:1022E000C0F8001170470000F0B40E4B1B680C469C
:1022F000C3F30223C3F10705042D00D90425191DDA
:10230000072901D2002300E0DB1E012606FA05F1B1
:10231000491E214099409E40761E16403143F0BC34
:1023200001F0D3BA0CED00E0064900F0070208689E
:102330004FF6FF03184040EA0220034A10430860AA
:10234000704700000CED00E00000FA0510B50146F2
:102350000020234C012922D0022939D010291DD177
:1023600061682268D20119D51E48C1F38342C903AE
:10237000805C0AD561681B4AC1F34041921E515CE2
:10238000194AB2FBF1F1484301E01849484361683A
:10239000490203D440000321B0FBF1F010BD226AD2
:1023A000C2F30121012903D1920701D5C80310BD51
:1023B000022905D1626A920702D549F6404010BD54
:1023C0000329FCD121688903F9D54FF2244010BDBF
:1023D00000F030F96168C1F38131491C4900DBE745
:1023E00000100240B04C000800127A0000093D00C5
:1023F0002DE9F84305460078354CC00754D0E06914
:102400000026C00008D4E06940F08050E061E06937
:10241000012600F0805000902E480168C90512D4B2
:102420000168804641F480710160FFF7F1FE0746C4
:1024300005E000BFFFF7ECFEC01B642823D8D8F8E6
:102440000000C005F6D5206A10F4407021D0A9889C
:1024500001F4407181421CD0206A1F49012220F4FE
:1024600040700A6000220A602062C00711D0FFF7A6
:10247000CFFE074641F2883808E000BFFFF7C8FEEC
:10248000C11B414502D90320BDE8F883206A8007BB
:10249000F4D5206A696820F44070084320621EB1B8
:1024A000E06920F08050E0612878800705D56068F9
:1024B000A96820F44040084360602878C00605D52C
:1024C0006068E96820F48000084360600020DBE772
:1024D0000010024000700040400442422DE9F047E5
:1024E0000F46050061D0434E306800F00700B84247
:1024F00009D2306820F0070038433060306800F0BF
:102500000700B84251D128683B4C810712D54007DB
:1025100003D5606840F4E06060602878000703D568
:10252000606840F4605060606068A96820F0F00066
:10253000084360602878C00728D06868012810D058
:102540002168022810D0890700292EDA616821F05D
:10255000030101436160FFF75BFE804641F2883969
:102560000DE021688903EFE78901EDE7FFF750FEF1
:10257000A0EB0801494502D90320BDE8F087606857
:10258000696800F00C00B0EB810FEFD1306800F00B
:102590000700B8420BD9306820F00700384330609C
:1025A000306800F00700B84201D00120E5E7287844
:1025B000400705D56068E96820F4E0600843606082
:1025C0002878000706D56068296920F4605040EA41
:1025D000C100606000F03EF86168084AC1F3031171
:1025E000515CC8400649086006480068FFF730FEA5
:1025F0000020C2E70020024000100240C04C00084A
:102600001C000020140000200148006870470000F2
:102610001C0000200448054900684968044AC1F3C9
:102620000221515CC84070471C000020001002408D
:10263000D04C00080448054900684968044AC1F3C1
:10264000C221515CC84070471C00002000100240AD
:10265000D04C00080E4A51680E4801F00C03042BC0
:1026600011D0082B0FD10C48C1F38343C903C05CC0
:102670000AD55168084AC1F34041921E515C054A8F
:102680005043B0FBF1F070470449484370470000E5
:102690000010024000127A009E4C000800093D0024
:1026A0002DE9F84F040070D02078C04DC00749D004
:1026B0006868C0F38100012807D06868C0F3810012
:1026C000022809D16868C00306D52868800339D577
:1026D00060680028E7D035E06068B0F5803F0BD037
:1026E00010B1B0F5A02F11D0286820F480302860F8
:1026F000286820F4802002E0286840F480302860B8
:10270000606890B1FFF784FD06460AE0286840F44F
:1027100080202860F0E700BFFFF77AFD801B642867
:1027200073D828688003F7D50CE0FFF771FD0646E3
:1027300005E000BFFFF76CFD801B6428F0D8286817
:102740008003F7D420789A4E80074FF001094FF0AC
:10275000000839D5686810F00C0F07D06868C0F31E
:102760008100022809D16868C00306D42868800760
:1027700014D52069012808D110E02069B0B1C6F84D
:102780000090FFF745FD074605E00AE1FFF740FD31
:10279000C01B0228C4D828688007F7D5286861695B
:1027A00020F0F80040EAC10028600DE0C6F8008083
:1027B000FFF72EFD074604E0FFF72AFDC01B0228A5
:1027C00023D828688007F7D4207800072CD57948CB
:1027D000A169D9B1C0F80090FFF71AFD074604E0DF
:1027E000FFF716FDC01B02280FD8686A8007F7D5CF
:1027F00071484FF4FA510068B0FBF1F0009000BF4F
:102800000098411E0091FAD20EE080E0C0F80080EE
:10281000FFF7FEFC074604E0FFF7FAFCC01B0228A6
:1028200075D8686A8007F7D42078400760D5E869D2
:102830000027C00008D4E86940F08050E861E869EA
:10284000012700F0805000905C480168C90513D44E
:102850000168834641F480710160FFF7D9FC82462C
:1028600006E000BFFFF7D4FCA0EB0A0064284ED8B6
:10287000DBF80000C005F5D5E06801280AD008B1F2
:10288000052813D0286A20F001002862286A20F069
:10289000040002E0286A40F001002862E06841F28A
:1028A000883B98B1FFF7B4FC82460BE0286A40F001
:1028B00004002862EEE700BFFFF7AAFCA0EB0A01C4
:1028C00059455AD8286A8007F6D50CE0FFF7A0FCD6
:1028D000824605E0FFF79CFCA0EB0A0159454CD865
:1028E000286A8007F6D41FB1E86920F08050E861BB
:1028F000E06988B36968C1F38101022944D00228E4
:10290000C6F8608004D0FFF783FC044638E034E06A
:10291000FFF77EFC074604E0FFF77AFCC01B0228A5
:102920002BD828688001F7D4206AB0F5803F05D104
:102930006868A16820F4003008436860D4E90801A1
:102940000843696821F4741108436860C6F8609010
:10295000FFF75EFC044606E025E000BFFFF758FCE9
:10296000001B022809D828688001F7D51BE000BFAA
:10297000FFF74EFC001B022802D90320BDE8F88FA8
:1029800028688001F4D40EE00128F7D06868226A34
:1029900000F48031914204D1616A00F470108842E1
:1029A00001D00120EAE70020E8E700000010024023
:1029B00000004242800442421C000020007000409F
:1029C00010B5401EB0F1807F01D3012010BD4FF043
:1029D000E02460610F21601700F077FF0020A06104
:1029E00007202061002010BD704710B50446006824
:1029F000406994F84110C0F3C010212911D180B171
:102A00002068143050E8001F21F0800140E80012D7
:102A1000002AF5D1A06B08B1FFF746F9204600F077
:102A2000CEFD2068406994F84210C0F3801022293E
:102A300011D180B12068143050E8001F21F040010E
:102A400040E80012002AF5D1E06B08B1FFF72CF93D
:102A5000204600F08DFD002010BD7047F8B50168DC
:102A600004460868CA684B6910F00F0F4FF0000564
:102A700059D003F0010602F49077374365D0C107BF
:102A800005D0D10503D5616C41F0010161644107B6
:102A900005D5D90703D0616C41F00201616481075B
:102AA00005D5D90703D0616C41F0040161640107C9
:102AB00007D502F02001314303D0616C41F00801D9
:102AC0006164616C00293AD0800604D5900602D575
:102AD000204600F082FD20684069616CC0F38010E0
:102AE000090700D460B3204600F042FD2068406929
:102AF000400621D52068143050E8001F21F0400125
:102B000040E80012002AF5D1E06BA8B16D4941639D
:102B1000E06BFFF7EDF8002811D0E06B416B01B0DE
:102B2000BDE8F040084783060FD593060DD5204633
:102B3000BDE8F84000F051BD2046FFF78EFFF8BD1C
:102B40002046FFF78AFF6564F8BD266B2023012E1F
:102B50007CD1C6067AD5D60678D508684868009034
:102B600048694FF00206400640D5E16B08684068AE
:102B70000004000CE8D0A28D8242E5D9E085886986
:102B800020282DD020680C3050E8001F21F48071DF
:102B900040E80012002AF5D12068143050E8001FE8
:102BA00021F0010140E80012002AF5D1206814301C
:102BB00050E8001F21F0400140E80012002AF5D142
:102BC00084F84230256320680C3050E8001F21F063
:102BD000100140E80012002AF5D1E06BFFF764F81D
:102BE0006663A08DE18D401A81B22AE0A08DE18D4F
:102BF000401A81B2E08D0028A6D00029A4D0226816
:102C00000C3252E8000F20F4907042E80007002FC9
:102C1000F5D12068143050E8002F22F0010240E87E
:102C20000027002FF5D184F84230256320680C304E
:102C300050E8002F22F0100240E80023002BF5D1CD
:102C400066632046FFF7D0FEF8BDFFE705062BD5EB
:102C5000150629D594F841002128F5D1A068B0F5D2
:102C6000805F01D12069B0B1206A411C21622168D6
:102C700000784860E08C401E0004000CE084E3D142
:102C80002068C16821F08001C1602068C16841F0FE
:102C90004001C160D8E7206A0088C0F3080048609E
:102CA000206A801C2062E5E74006CDD55006CBD5D2
:102CB000CA68204622F04002CA6084F8413000F021
:102CC000EDF8C1E77334000870B5040004D094F83F
:102CD0004100002510B106E0012070BD84F840508D
:102CE000204600F023F8242084F841002068C168C1
:102CF00021F40051C160204600F0D0FC2068016939
:102D000021F4904101612068416921F02A0141616B
:102D10002068C16841F40051C1606564202084F8D6
:102D2000410084F842006563002070BD70B586B034
:102D300000250646009501950295039500682249F5
:102D400088423ED12149886940F480408861886981
:102D500000F480400490886940F00400886188692C
:102D60001B4C00F0040004904815009002200190D4
:102D70000320039069462046FFF748F92015CDE966
:102D80000005694620460295FFF740F9124C1148AC
:102D9000C4E900058020C4E9025025616561A56190
:102DA0002046E561FFF79AF808B1FEF722FDF463CB
:102DB0000022114625206662FFF796FA2520FFF7CC
:102DC00085FA06B070BD00000038014000100240D6
:102DD0000008014058000240C004002090F8423032
:102DE000202B01D00220704721B11AB100230363C8
:102DF00000F0B0BC01207047704770472DE9F843E0
:102E0000044690F84100984616460D46202802D008
:102E10000220BDE8F88385B17EB1002060642120E6
:102E200084F84100FFF7F4F9A6848146E684A0689F
:102E30002027B0F5805F02D003E00120E9E7206998
:102E400010B12E4600250EE000260CE08021204621
:102E500000F0C8FCA8B9C6B116F8010B216848609B
:102E6000E08C401EE084E08C4B464FF00002CDF831
:102E700000800028EAD14FF04001204600F0B2FC6B
:102E800040B184F841700320C3E735F8020BC0F36A
:102E90000800E3E784F841700020BAE77047FEE7D6
:102EA0003EB5002411480094019402940E498460B8
:102EB000016004730475012505614FF460214460CD
:102EC000C161FEF71BFD08B1FEF793FC0720CDE9B9
:102ED0000005694602940548FEF78EFC002801D0E3
:102EE000FEF787FC3EBD00000024014030000020BA
:102EF0003EB5002411480094019402940E49846068
:102F0000016004730475012505614FF4602144607C
:102F1000C161FEF7F3FC08B1FEF76BFC0820CDE9B8
:102F20000005694602940548FEF766FC002801D0BA
:102F3000FEF75FFC3EBD000000280140600000205D
:102F4000094808B5416941F0010141614069002229
:102F500000F00100009011460F20FFF7C5F9BDE811
:102F600008400F20FFF7B2B9001002402DE9F041F0
:102F700086B000200090019002900390284881695B
:102F800041F020018161816901F020010491816992
:102F900041F004018161816901F0040104918169BA
:102FA00041F00801816180691E4F00F0080040F285
:102FB00073140490012221463846FFF724F9DFF804
:102FC000688048F2E236012231464046FFF71BF99D
:102FD000009401240325694638460194CDE9024551
:102FE000FFF714F8CDE9006469464046CDE9024593
:102FF000FFF70CF84FF4E04000900C48CDE90104D5
:1030000069464046FFF702F8002211462820FFF7E4
:103010006BF92820FFF75AF906B0BDE8F0810000EF
:103020000010024000080140000C01400000211087
:103030000C4810B50A4901604FF4E13141600021AC
:1030400081600C22C160C0E904128161C161FFF797
:103050003BFE002803D0BDE81040FEF7CABB10BD00
:103060000038014078040020FEE7FEE730B400217C
:10307000084B0A465FF0000003EBC004401CC0B2DE
:1030800062548028F8D3491CC9B20829F2D330BC55
:1030900000F0C0B80405002030B1012807D100219C
:1030A0005FF0A70000F06CB90021A620FAE7704796
:1030B00010B558B1012810D10021C02000F060F9EE
:1030C0000021A020BDE8104000F05AB90021C8201E
:1030D00000F056F90021A120F4E710BD30B5CC086E
:1030E00001F0070301259D40EBB2064D05EBC0053D
:1030F000C808285C0AB1184302E063EA0000C04334
:10310000285530BD0405002010B5414C0022102187
:103110002046FFF778F8C820FEF746FF012210216D
:103120002046FFF770F80021AE2000F029F90021B9
:10313000084600F025F90021102000F021F90021B7
:10314000402000F01DF90021812000F019F9002134
:10315000CF2000F015F90021A12000F011F9002185
:10316000C82000F00DF90021A62000F009F9002187
:10317000A82000F005F900213F2000F001F900210E
:10318000D32000F0FDF80021084600F0F9F80021F6
:10319000D52000F0F5F80021802000F0F1F80021A2
:1031A000D92000F0EDF80021F12000F0E9F800212D
:1031B000DA2000F0E5F80021122000F0E1F800210B
:1031C000DB2000F0DDF80021402000F0D9F80021DC
:1031D000202000F0D5F80021022000F0D1F80021D5
:1031E0008D2000F0CDF80021142000F0C9F8002156
:1031F000A42000F0C5F80021A62000F0C1F8FFF7D8
:1032000035FF0021BDE81040AF2000F0B9B8000044
:103210000008014070B5114E002400BF04F1B00059
:10322000C0B2002100F0ACF80021084600F0A8F878
:103230000021102000F0A4F85FF0000506EBC500A7
:103240000121005D00F09CF86D1CEDB2802DF5D3DE
:10325000641CE4B2082CE1D370BD0000040500201A
:103260002DE9FC4F1C460E4682468B460190082BEA
:103270000DD0600700D0012000EBD4006108484366
:10328000C0B28146203AD0B2009000204BE0062028
:10329000F7E7082C13D00C2C18D0102C1BD0182CAE
:1032A00044D10098234900EBC00000BF01EB80012E
:1032B000002711F80850E80712D00B9A13E0009885
:1032C0001D4900EB400001EB4001F1E700981B496C
:1032D00000EB4000EAE71A49009801EB0011E7E72C
:1032E0000B9828B3002231465046FFF7F7FE761CB4
:1032F0007F1C6D08FFB2F6B2082FDCD30AF1010083
:1033000000F0FF0A082C0AD00199AAEB0100B0EBEB
:10331000540F04D10BF108008A4600F0FF0B08F1AE
:1033200001005E46C0B280464845B2D3BDE8FC8F7E
:103330000122D8E764590008D84C0008004F000863
:10334000745300082DE9F8411E4615468846044688
:10335000079F0BE03346414620460097FFF780FF6A
:10336000082E0AD004EB5600C4B26D1C2A78A2F1D4
:1033700020005E28EED9BDE8F881A41DE4B2F4E790
:1033800070B51A4E054609B1012200E00022202145
:103390003046FEF738FF002240213046FEF733FF6B
:1033A0000024002201213046FEF72DFF280601D51A
:1033B000012200E0002202213046FEF724FF012214
:1033C00011463046FEF71FFF6806641C050EE4B286
:1033D000082CE6D3012240213046FEF714FF304688
:1033E000BDE8704001222021FEF70DBF000801401A
:1033F00070477047FEF712BF30B593B0282168467A
:10340000FDF766F814210AA8FDF762F800250120EF
:103410000F9510951195010412958DE823000490E5
:103420004FF4E010CDE90810022407946846FFF736
:1034300037F908B172B6FEE70AA90F2081E831001A
:103440004FF48060CDE90D0502210AA8FFF746F888
:1034500008B172B6FEE74FF4004011900F940FA828
:10346000FEF7C6FF002801D072B6FEE713B030BDEC
:10347000704710B5406A0021C185C184FFF7EDFA9D
:1034800010BD70B5446A2068406994F84110C0F3DB
:10349000C0100025212904D118B1E584204600F090
:1034A0008EF82068406994F84210C0F380102229F9
:1034B00004D118B1E585204600F05AF8606C40F060
:1034C000100060642046FFF7C8FA70BD10B50146D1
:1034D000406A096809684FF0000289062ED4C28547
:1034E00001680C3151E8003F23F4807341E8003457
:1034F000002CF5D10168143151E8003F23F001039D
:1035000041E80034002CF5D10168143151E8003F46
:1035100023F0400341E80034002CF5D1202180F84D
:103520004210016B012909D101680C3151E8003FBB
:1035300023F0100341E80034002CF5D14263016B05
:10354000012902D0FFF758FC10BD818DFFF74CFA1E
:1035500010BD10B5406A01214163016B012902D001
:10356000FFF74BFC10BD818D4908FFF73DFA10BDF8
:1035700001680C3151E8002F22F4907241E80023D9
:10358000002BF5D10168143151E8002F22F001021F
:1035900041E80023002BF5D1016B012909D1016815
:1035A0000C3151E8002F22F0100241E80023002BDB
:1035B000F5D1202180F84210002101637047016895
:1035C0000C3151E8002F22F0C00241E80023002B0B
:1035D000F5D1202180F84110704708B590F84210CD
:1035E000222901D0022008BD82684FF480539A42FC
:1035F00001D1016921B1816A9A421BD04AB10AE026
:103600000268816A5268C2F308020A80816A891CD2
:1036100008E0026972B10268526802F07F020A7023
:10362000816A491C8162C18D491E0904090CC1854A
:1036300003D01BE002685268F1E70168CA6822F013
:103640002002CA600168CA6822F48072CA600168F8
:103650004A6922F001024A61202180F842100021CB
:103660004163026B012A03D0FFF7C6FB002008BDAF
:10367000016301680C3151E8002F22F0100241E88B
:103680000023002BF5D101680A68D20602D50A682A
:1036900049680091818DFFF7A7F9E7E770B5044607
:1036A00000680169E26821F4405111430161216918
:1036B000A0680843616908432168CA6841F20C6345
:1036C0009A430243CA6020684169A26921F44071AB
:1036D000114341611E492068884202D1FEF7AAFFCA
:1036E00001E0FEF797FF00EBC00101EB00126068FC
:1036F00064218000B2FBF0F3B3FBF1F36FF0180626
:103700007343B2FBF0F5B2FBF0F605EB8305322311
:1037100003EB0515B5FBF1F5B6FBF1F605F0F00589
:1037200005EB0615B2FBF0F6B2FBF0F0B0FBF1F0E2
:103730006FF01802504306EB800003EB0010B0FB63
:10374000F1F0216800F00F002844886070BD00008F
:103750000038014038B58162044682850020134656
:103760006064222284F84220E56B1B4AAA62E56B62
:103770001A4AEA62E56B1A4A2A63E26B50630A4608
:103780002168E06B091DFEF7D7FB206801684068DF
:103790000090206948B120680C3050E8001F41F4C7
:1037A000807140E80012002AF5D12068143050E8FA
:1037B000001F41F0010140E80012002AF5D1206805
:1037C000143050E8001F41F0400140E80012002A88
:1037D000F5D1002038BD0000CD3400085335000875
:1037E000833400082DE9F843984617460D460446F1
:1037F000089E24E0701C22D0FEF70AFDA0EB080012
:10380000B0421AD8CEB12068C168490717D5802DBB
:1038100015D0402D13D00168C94309070FD40168A2
:103820000025406800902046FFF7A2FE0820606453
:1038300084F840500120BDE8F8830320FBE72068AE
:10384000006835EA000004D00020B842D2D0002041
:10385000F1E70120F9E700000D4808B500680168AC
:10386000C943C9060FD40168406800900848FFF7B3
:10387000BCF80848006840680749C0F57A700870CD
:10388000064901200870BDE808400148FFF7E6B886
:1038900078040020C00400200D0000200E0000204D
:1038A000FEE7490050EAC12018BF04204A0D18BFA6
:1038B00040F0010040F2FF72B2EB515F08BF40F0F0
:1038C0000200012808BF052070470907090E0028DB
:1038D00004DB00F1E02080F80014704700F00F00D6
:1038E00000F1E02080F8141D704730380A2801D21A
:1038F00001207047002070472DE9F04127A12AA739
:103900000FF2AC0830482CA62DA50278002A43D02F
:103910000024047009222D48FCF78CFD10B92C49B5
:103920000120087039462948FCF772FD294F20B163
:10393000002202213846FEF766FC41462348FCF788
:1039400067FD20B1012202213846FEF75CFC3146BA
:103950001E48FCF75DFD4FF4004620B100223146C1
:103960003846FEF750FC29461848FCF751FD20B1B7
:10397000012231463846FEF746FC174804704FF4E2
:103980007A7421461148FCF781FD2246BDE8F041DA
:103990000E491248FFF722BABDE8F081302C434FA0
:1039A0004E4E4543540000006C6564316F6E00005C
:1039B0006C6564316F6666006C6564326F6E000022
:1039C0006C6564326F6666000E0000209000002077
:1039D0002C000020000C01400D0000207804002085
:1039E00094B0142102A8FCF773FD142107A8FCF77A
:1039F0006FFDFEF71BFCFFF7FFFCFFF7B7FAFFF7C1
:103A00009FFAFFF74DFAFFF773FAFFF711FBFFF785
:103A10007BFB0020FFF740FB0020FFF749FBFFF78F
:103A200025FB00F0B9F94FF0010800BFFFF764FF74
:103A30006948FEF7D9F80A216748FEF737F8664863
:103A4000FDF758FF80B200F0B7FD644E4FF06635C9
:103A50002A46334600F0C4FD6FF00B073A4601F0EA
:103A6000D7F800F029FB834600F0A2FF81460B4601
:103A700001914A465AA102A8FCF7B6FB0021444630
:103A8000102302AA0846CDF80080FFF75BFCFFF781
:103A9000C1FB5648FEF7A8F80A215448FEF706F87D
:103AA0005248FDF727FF80B200F086FD2A463346D4
:103AB00000F096FD3A4601F0ABF800F0FDFA8246C0
:103AC00000F076FF0E4605462A46334648A107A871
:103AD000FCF78AFB102307AA142100200094FFF7AB
:103AE00031FCFFF797FB454CA068401C3221A060D9
:103AF00090FBF1F068B10020A060019BCDE9005679
:103B00004A463FA10CA8FCF76FFB1B210CA800F054
:103B100003F9FDF745FD5846616800F095FF1AD29C
:103B20003D4E0020074630600CE0002531782846E5
:103B300000F08CF80120FEF737FA6D1CEDB2082D6D
:103B4000F4D37F1C5A2000F06DF8C11700EB5170C0
:103B5000B7EBE00FE9DB607800F062FF514600F060
:103B6000F2FF1AD22C4E0025C6F800800CE000248B
:103B70003178204600F06AF80120FEF715FA641C3F
:103B8000E4B2082CF4D36D1C5A2000F04BF8C11796
:103B900000EB5170B5EBE00FE9DB204C20780128F9
:103BA00005D103202070FFF761FA00F06FF920784B
:103BB00028B90320207002211948FEF71CFB207849
:103BC00002287FF433AF032020704FF400411448E3
:103BD000FEF711FB2AE700003000002066660A406D
:103BE0004C696768743A252E336600006000002037
:103BF0005261696E3A252E336600000000000020F5
:103C00006C696768743A252E3366205261696E3A92
:103C1000252E33660D0A0000200000200C00002035
:103C2000000C014010B500F0B0FC0022054B00F084
:103C300025FB062200F0ECFF00F078FC024980B280
:103C4000088010BD008016402400002070B50129B6
:103C500002D1C0F10800C0B22E4CA515082857D2D9
:103C6000DFE800F0040B181F26323E40012220211D
:103C70002046FEF7C8FA002201E001220BE04021B5
:103C80002046FEF7C0FA002280212046FEF7BBFA4C
:103C9000002237E0002220212046FEF7B4FA01225C
:103CA000EDE7002220212046FEF7ADFA012205E0D3
:103CB000002220212046FEF7A6FA002240212046BD
:103CC000FEF7A1FA0122DFE7002220212046FEF7BD
:103CD0009AFA002240212046FEF795FA01220CE0D4
:103CE000002200E0012220212046FEF78CFA00226B
:103CF00040212046FEF787FA002280212046FEF769
:103D000082FA012229462046BDE87040FEF77BBAC0
:103D100070BD0000000C014070B500259AB00C4643
:103D200006460A2900DA0125A4F10B00592800D221
:103D300002251248007800281ED034216846FCF77E
:103D4000C7FB34210DA8FCF7C3FB22460CA1684633
:103D5000FCF74AFA05F10F024FF6FF752B4669464C
:103D60000C48FFF74BF86420FEF71EF9A2B22B4671
:103D700031460848FFF742F81AB070BD2C00002009
:103D800041542B43495053454E443D302C25640D3E
:103D90000A0000007804002070B54FF6FF752B462E
:103DA0000D221DA12048FFF729F84FF47A74204610
:103DB000FEF7FAF82B4626221CA11B48FFF71EF837
:103DC0002046FEF7F1F82B46082222A11648FFF7FD
:103DD00015F8A000FEF7E8F82B460D2220A11248A6
:103DE000FFF70CF82046FEF7DFF82B46152220A13E
:103DF0000D48FFF703F82046FEF7D6F80A4800689A
:103E0000C16841F01001C16022461F490648FEF713
:103E1000E5FF012070BD000041542B43574D4F4436
:103E2000453D320D0A0000007804002041542B4328
:103E3000575341503D2245535038323636222C22BA
:103E400030313233343536373839222C31312C3059
:103E50000D0A000041542B5253540D0A000000007B
:103E600041542B4349504D55583D310D0A00000037
:103E700041542B4349505345525645523D312C3500
:103E80003030300D0A000000900000202DE9F04F86
:103E90008DB00024012708236AA221461E20009726
:103EA000FFF750FAFFF7B6F9684EDFF8A4B1694D95
:103EB0004FF003084FF0814AA146686800F078FD92
:103EC00002460B4664A104A8FCF78EF90CB1012050
:103ED00000E000200090082304AA0A210020FFF738
:103EE00031FAAA785FA107A8FCF77EF9012C01D06E
:103EF000012000E000200090082307AA14210020E0
:103F0000FFF720FA2A7857A10AA8FCF76DF9022CCE
:103F100001D0012000E00020009008230AAA1E2101
:103F20000020FFF70FFA6A7852A101A8FCF75CF9AC
:103F3000032C09D0082301AA282100200097FFF7AD
:103F400001FA042C08D109E0082301AA2821002045
:103F5000CDF80090FFF7F6F9012000E00020009076
:103F6000082347A232210020FFF7ECF9FFF752F9AE
:103F7000307801280BD088B102289ED186F80080C5
:103F8000052C9AD2DFE804F02F3E47505900641CFC
:103F900086F80080042C90DD00248EE786F80080EF
:103FA0004CB1012C17D0022C19D0032C85D1687884
:103FB000401E687081E7686800F0FAFC5A46324B90
:103FC00000F00CFC00F078F8686010F1FF4FE4D3CB
:103FD000C5F804A071E7A878401EA8706DE728789E
:103FE000401E287069E7686800F0E2FC5A46264BDC
:103FF00000F094F800F060F868605045CDDDC5F839
:1040000004905AE7A878401CC0B2A8703C28C4D9D4
:1040100085F8029051E72878401CC0B22870282803
:10402000BBD985F8009048E76878401CC0B268703A
:104030000428B2D985F801903FE7FFF717F80DB0D3
:10404000BDE8F08F53657474696E67000C00002042
:104050009A999999000000204C696768743A253054
:104060002E32660068756D69646974793A2530325C
:10407000640000005261696E3A253032640000002D
:104080004261636B000000009999B93F10B50029A7
:104090000AD00878002807D005487844FCF7F6FDD8
:1040A000002801D0002010BD0248784410BD000057
:1040B000162B00000E2B000021F00042A2F16052EE
:1040C000B2F5801F01F0004328BFD2F17F6C0BD9FD
:1040D0005FEA001C43EAC20242EB507018BF70470F
:1040E00028BF20F001007047B2F5801FBCBF184602
:1040F00070474FEA410C1CF5001F02D2084600F041
:104100001DBD70B500F016FB00000089FFF7F6BF7B
:104110004FF00040A0F580007047000010B591EA14
:10412000030F48BF83F0004300F16083841A71EBF2
:10413000030C05D2121943EB0C03001B61EB0C01BD
:10414000DFF824E14FEA1154A4EB135C1EEA430F9D
:1041500018BF9EEA445F73D023EA0E03DCF1200E01
:1041600021EA045143F4801332D322FA0CFE10EBFF
:104170000E0023FA0CFE41EB0E01CCF1200E03FAE7
:104180000EFE10EB0E0051F10001B1F5801FCCF1D5
:10419000200E32D201EB045112FA0EF2BDE81040AB
:1041A00058BF7047401C38BF5FEA420218BF7047D3
:1041B000002814BF20F0010041F100014FEA410343
:1041C00013F5001F38BF7047A1F1C04100F000BBDC
:1041D000012A43EB0302ACF1200CDCF11F0E32BFCD
:1041E0004FF0000E23FA0CF310EB030041EB0451E7
:1041F000B4EB115FD0D0A1EB045101F58011490857
:104200005FEA300001EB04510ED350F1000038BFDB
:1042100012FA0EFE08D1BDE81040C9E7401C38BFB5
:104220005FEA4202CAD1C3E7BDE810404FEA41034A
:1042300013F5001F38BF7047A1F1C04100F0C8BAA4
:104240009EEA445F08D011EA5E0FBDE8104004BF4B
:1042500001F0004100207047BDE8104070B500F04B
:1042600069FA00BF64FBBE3E0000E0FF02494FF068
:10427000000000F09BBC00BF0000F87F2DE9C041AA
:1042800030B4DFF8A0C23CEA111418BF3CEA1314A2
:1042900000F0EC8081EA03051CEA111444EAD574AD
:1042A00018BF1CEA131500F0C780A4EB05044FF0FB
:1042B000004545EAC12145EAC32341EA505143EA9A
:1042C000525304F17F74994204F500344FEAC02040
:1042D0004FEAC22208BF904200F09C804FEA13656B
:1042E0000FF24016765D4FEA134506FB05F7C7F15E
:1042F000807706FB07F74FEAD737A7FB03687642BC
:10430000C8F58038A7FB06CE38BFA8F1010807FB27
:1043100008E64FF0000EA6FB028CE6FB03CEDCF1B4
:10432000000CCEF1004E38BFAEF1010EA6FB0C58CA
:104330004FF000074FF00005E6FB0E87A1FB08C613
:10434000A0FB07CE16EB0E0645F10005E1FB076565
:1043500015F1E04E7EBFA4F580345FEA46066D415C
:1043600016F1800745F100054FEA17274FEA066668
:1043700047EA0567A6F1DE46B6F1805F4FEA1525EC
:104380001FD9384624F0010C05EBC471BCF1FE6F57
:1043900001EB0C1102D8F0BCBDE8008124425CBFE7
:1043A00001F5801E9EEAC47F02D4F0BCBDE8008106
:1043B000244238D4F0BCA1F1C041BDE8004100F076
:1043C00007BA4FEAD22242EA43524FEAD323A7FB6D
:1043D00002864FEAD02040EA415007FB03661EEAFE
:1043E0000E0F4FEAD12105FB026658BFA6EB00561F
:1043F000B6EB00564FEA520E4EEAC37E18EB0E0E95
:1044000056EB530EBDD518EB02085E417F1C55F1EB
:104410000005B6E74FF480154FF000074FF0000697
:104420004FF00008ADE7F0BC4FF0000001F1C041D3
:1044300001F00041BDE8008111EA0C1F0CEA1315E0
:1044400000D00CE013EA0C1F00F025804FF00000B4
:10445000F0BC81EA030101F00041BDE80081F0BC3D
:10446000BDE8004181EA030100F0B2B9F0BCBDE84B
:10447000004170B500F05EF9097EFC3E00F007B81F
:1044800081EA03014FF0000001F00041704781EA2A
:10449000030100F09DB9F0BCBDE800414FF0000001
:1044A00021497047FFFDFBF9F7F5F4F2F0EEEDEB73
:1044B000E9E8E6E4E3E1E0DEDDDBDAD8D7D5D4D322
:1044C000D1D0CFCDCCCBCAC8C7C6C5C4C2C1C0BF6E
:1044D000BEBDBCBBBAB9B8B7B6B5B4B3B2B1B0AF74
:1044E000AEADACABAAA9A8A8A7A6A5A4A3A3A2A158
:1044F000A09F9F9E9D9C9C9B9A9999989797969513
:1045000095949393929191908F8F8E8E8D8C8C8BAE
:104510008B8A898988888787868585848483838236
:10452000828181800000FF070000F87F4FEA41038D
:104530004FEA5353A3F58063D3F11E03C8BFD3F1F1
:10454000210C0CDD4FF0004242EAC12242EA5052F7
:1045500032FA03FC8CEAE17CACEBE1707047102B83
:10456000C4BF0020704703F5787CBCF1FF3F04D046
:104570006FF0004282EA2100704770B500F0DAF86F
:104580004992248000207047F2E710F0004248BFB3
:104590004042B0FA80F310FA03F10AD0C3F11D03D0
:1045A00003F580634FEA415002EB035202EBD12145
:1045B00070474FF000007047B0FA80F310FA03F133
:1045C0000AD0C3F11D0303F580634FEA41504FEA5F
:1045D000035202EBD12170474FF0000070470000FA
:1045E000DFF848C170B51CEA111E1EBF1CEA131586
:1045F0009EEA0C0F95EA0C0F00F06F8081EA03042D
:1046000023EA4C134EEAD47E21EA4C1141F4801186
:1046100043F48013AE44A1FB024CA0FB0365AEF152
:104620007F7E361955EB0C05A1FB034C4CF10003C2
:10463000A0FB021C16EB0C06654153F10003094276
:1046400018BF46F0010613F4007F0BD14FEA033187
:104650004FEA0530340341EA155140EA16506FF035
:1046600003020AE04FEAC3214FEAC520F40241EAFF
:10467000555140EA56506FF0020202EB2E4201EB18
:10468000025585EACE710AD05FEA440C18BF24F0C7
:10469000004450F1000041F1000120EAD47040F2E2
:1046A000FE7C624500D270BDA84214BF4FF080442A
:1046B0004FF04044002E08BF0024BEF1806FA8BF19
:1046C000A1F1C041BDE8704080F282804FF000004F
:1046D00001F1C04101F0004170479EEA0C0F0CEA65
:1046E000131518BF95EA0C0F06D04FF0000081EAB1
:1046F000030E0EF0004170BD00F01CF88900013E71
:1047000000F007B800F009B84FEA430C5FEA5C5CC0
:1047100008D081EA030100F05BB84FEA410C5FEA80
:104720005C5CF6D14FF00000014970470000FF07C4
:104730000000F87F0EF1020E2EF0030E5EF8046BFF
:10474000364205D4012A43EB030515F5001F12D8A4
:10475000012841EB010C1CF5001F0CD80ED14FEACB
:10476000D17C15F5001F0CEB4C0C0CF1020C08BFB2
:104770004CEBD37C04E04FF0080C01E04FEAD37C13
:104780000CEB4C0526FA05F606F00706B6F1040C0C
:1047900006D20EEB860CBDE870404CF0010C604771
:1047A000DFE80CF0090B02024FF000414FF000006F
:1047B000A1F5002170BD19461046012851EB0104F6
:1047C00018BFD4F5001484BF002001F0004170BD73
:1047D0000808A0F500114FEA3101704710B591EAC1
:1047E000030F48BF83F000433FF5A0AC841A71EB80
:1047F000030C07D212198CF0004C43EB0C03001B86
:1048000061EB0C01DFF8A4E14FEA1154A4EB135C57
:104810001EEA430F18BF9EEA445F00F0B08023EA0F
:104820006E03524221EA0451C3EB6E0338BF5B1E94
:10483000DCF1200E25D322FA0CFE10EB0E0043FA19
:104840000CFE41EB0E01CCF1200E03FA0EFE10EB34
:104850000E0051F10001CCF1200E29D412FA0EF213
:1048600001EB0451BDE8104058BF7047401C1CBF0D
:10487000B2F1004F704700280CBF491C20F0010026
:10488000704712EB020E43EB030218BF4FF0010E0C
:104890004EEA4202ACF1200CDCF11E0E54D943FA70
:1048A0000CFE10EB0E0051F1FF31CCF11E0ED5D5F0
:1048B0000EF1010E12FA0EFE404141EB010101EB37
:1048C000445C5FEA5C5C10D910EBDE7001EB0451D4
:1048D00038BFBEF1004FBDE8104018BF7047002838
:1048E0000CBF491C20F00100704730D24FEAD42C95
:1048F00011F5001124F400641BD0B1FA81F20B3AD7
:10490000A41AA41ED2F12003914030FA03F31943F4
:10491000904001EBCC71002C01EB0451BDE810403C
:10492000A8BF704701F1C0414FF0000001F0004105
:104930007047B0FA80F310FA03F100D110BDE41A09
:10494000173C4805C90AE4E701EB045110BD4910C2
:1049500001EB0451BDE810404FEA300002E04FF097
:10496000000170474A0008BF0042F8D0B2F5001FAE
:1049700028BF704701F000414FF0000070479EEAE9
:10498000445F07D011EA5E0FBDE8104004BF00216C
:1049900000207047BDE8104070B5FFF7CBFE00BFA8
:1049A00040DFF63E83F00041104670470000E0FF14
:1049B00043004FEAD30C4FEA3C0C43401FBF400773
:1049C0000CF1605113F0FE4F70471CF0006F03D1E3
:1049D00000200CF0004170470CF0004343EA507097
:1049E00010B540EACC0000F063F800BF0000009270
:1049F0004FEA0001FFF7ECBE4FF000414FF000001E
:104A0000A1F500217047401058BFC0F14040491047
:104A100058BFC1F140418142EFF300807047000070
:104A2000B0FA80F310FA03F2C3F19D030AD0D9055E
:104A300001EB1220530638BF704700F1010008BF98
:104A400020F001007047000050EA010C00F11380D3
:104A50001CF5000F58BFBCF5000F01D48842704709
:104A600007D710F5000F58BF11F5000F15D4884275
:104A70007047894270471CF5000F04D5BCF5000F44
:104A8000F7D5814270474FF0807C1CEB400F38BF58
:104A90001CEB410F01D28142704710B500F008F8BD
:104AA000922449004FF000504FF08051FFF7ABBF08
:104AB0000EF1020E2EF0030E5EF8044B244204D4D5
:104AC0004FEA4102B2F17F4F11D84FEA4003B3F1F0
:104AD0007F4F0CD80ED14FEAD07CB2F17F4F0CEB58
:104AE0004C0C0CF1020C08BF4CEBD17C04E04FF0F5
:104AF000080C01E04FEAD17C0CEB4C0324FA03F4E0
:104B000004F00704B4F1040C06D20EEB840CBDE8EB
:104B100010404CF0010C6047DFE80CF0070802027F
:104B20004FF00040A0F5800010BD0846420018BFBD
:104B3000D2F1807288BF00F0004010BDFF2141EA31
:104B4000D050C005704751EA000C00F113801CF5ED
:104B5000000F58BFBCF5000F01D48142704707D742
:104B600011F5000F58BF10F5000F15D481427047A2
:104B7000894270471CF5000F04D5BCF5000FF7D52E
:104B8000884270474FF0807C1CEB410F38BF1CEB14
:104B9000400F01D28842704780EA010081EA00019B
:104BA00080EA0100FFF779BFFBF7EEBD0CF00F03C1
:104BB000092B08BF082000F059800A2B0BD0082BC6
:104BC00018BF704708BF1CF0400F0AD04FF000001C
:104BD0004FF0000170471CF0400F18BF4FF000402D
:104BE00070471CF0100F08D020F0704300F07F4297
:104BF00042EAD3014FEA4370704700F0604021F071
:104C00007F4242EA000201F07F4040EA7270704742
:104C10004FF0FF0C4CF4E06C1CEA11531CBF9CEAF3
:104C2000030C9445C2BFDA4201EB02517047002BDE
:104C30000DD0BCF1000F0FD0002A01F00041A4BF3D
:104C400041F0E04141F07F614FF00000704701F01A
:104C500000414FF00000704750EA01334FF09B0CC9
:104C600018BF4CF0806C7FF401AB70471CF4801FC0
:104C700011D01CF4E02F03D06FEACC31490070470B
:104C80004FF04050EFF3008222F0704242EA0002FF
:104C900082F3008870474FF0000070470102020362
:104CA0000405060708090A0B0C0D0E0F101001026F
:104CB00002030405060708090A0B0C0D0E0F10105D
:104CC00000000000000000000102030406070809BC
:104CD00000000000010203040000000000000000CA
:104CE000002F000000000700070000147F147F144D
:104CF00000242A7F2A1200626408132300364955D3
:104D0000225000000503000000001C2241000000AA
:104D100041221C000014083E08140008083E080840
:104D2000000000A06000000808080808000060609B
:104D30000000002010080402003E5149453E0000DA
:104D4000427F4000004261514946002141454B31BC
:104D5000001814127F10002745454539003C4A4988
:104D600049300001710905030036494949360006FA
:104D70004949291E00003636000000005636000062
:104D800000081422410000141414141400004122DD
:104D9000140800020151090600324959513E007CB5
:104DA0001211127C007F49494936003E414141229F
:104DB000007F4141221C007F49494941007F090988
:104DC0000901003E4149497A007F0808087F000038
:104DD000417F4100002040413F01007F08142241F3
:104DE000007F40404040007F020C027F007F0408AB
:104DF000107F003E4141413E007F09090906003E07
:104E00004151215E007F091929460046494949312F
:104E10000001017F0101003F4040403F001F204052
:104E2000201F003F4038403F006314081463000710
:104E30000870080700615149454300007F41410067
:104E400000552A552A55000041417F000004020107
:104E500002040040404040400000010204000020E5
:104E600054545478007F4844443800384444442023
:104E700000384444487F00385454541800087E09D0
:104E800001020018A4A4A47C007F08040478000098
:104E9000447D4000004080847D00007F1028440055
:104EA0000000417F4000007C04180478007C080466
:104EB000047800384444443800FC242424180018A2
:104EC000242418FC007C080404080048545454208E
:104ED00000043F444020003C4040207C001C204017
:104EE000201C003C4030403C004428102844001C5A
:104EF000A0A0A07C004464544C4414141414141452
:104F00000000000000000000000000000000FC00A5
:104F10000000000002000000000C020C0200000073
:104F20000000000090D0BCD0BC9000030003000043
:104F30001824FE448C000302070201001824D8B094
:104F40004C80000300010201C038E438E000010297
:104F5000020102020806000000000000000000003C
:104F6000000000F80402000000010204000204F83E
:104F700000000004020100009060F8609000000052
:104F8000010000002020FC202000000001000000A3
:104F90000000000000000806000000002020202083
:104FA00020000000000000000000000000000002DF
:104FB000000000000080601C0200040300000000EC
:104FC000F8040404F8000102020201000008FC00D9
:104FD00000000002030200001884442418000302A9
:104FE0000202020008042424D80001020202010087
:104FF00040B088FC80000000000302003C24242410
:10500000C400010202020100F824242CC0000102A5
:10501000020201000C04E41C040000000300000074
:10502000D8242424D8000102020201003844444458
:10503000F800000302020100000010000000000060
:105040000200000000002000000000000600000038
:10505000002050880402000000000102909090900F
:1050600090000000000000000002048850200002B0
:10507000010000001804C424180000000200000011
:10508000F804E494F80001020202020000E09CF03F
:10509000800002030000030204FC2424D800020361
:1050A00002020100F80404040C00010202020100E3
:1050B00004FC0404F80002030202010004FC24744E
:1050C0000C0002030202030004FC24740C0002031F
:1050D00002000000F0080444CC400001020201007C
:1050E00004FC2020FC040203000003020404FC046E
:1050F0000400020203020200000404FC040406048B
:105100000403000004FC24D00C0402030200030288
:1051100004FC04000000020302020203FC3CC03C49
:10512000FC0003000300030004FC30C4FC04020381
:1051300002000300F8040404F80001020202010066
:1051400004FC24241800020302000000F8848404F4
:10515000F80001020207050004FC24649800020321
:1051600002000302182424448C00030202020100FE
:105170000C04FC040C0000020302000004FC00000C
:10518000FC04000102020100047C80E01C04000019
:10519000030000001CE03CE01C00000300030000D2
:1051A000049C609C0400020300030200041CE01C39
:1051B00004000002030200000C84641C04000203CB
:1051C000020203000000FE020200000007040400C7
:1051D000000E30C00000000000010200000202FECC
:1051E00000000004040700000004020400000000A6
:1051F000000000000000000000000808080808087F
:105200000000020000000000000000000040A0A01C
:10521000C00000010202030204FC2020C0000003C1
:105220000202010000C02020600000010202020012
:1052300000C02024FC0000010202030200C0A0A064
:10524000C0000001020202000020F8242404000231
:10525000030202000040A0A0602000070A0A0A041E
:1052600004FC2020C0000203020003020020E4002E
:105270000000000203020000000020E40000080813
:105280000807000004FC80E0202002030200030263
:105290000404FC000000020203020200E020E020FF
:1052A000C00003000300030020E02020C000020330
:1052B0000200030200C02020C00000010202010021
:1052C00020E02020C000080F0A02010000C02020BA
:1052D000E0000001020A0F0820E040202000020345
:1052E000020000000060A0A02000000202020300F3
:1052F0000020F820000000000102020020E0002051
:10530000E00000010202030220E020806020000093
:10531000030100006080E0806000000300030000E3
:1053200020608060200002030003020020E0208053
:1053300060200808070100000020A0602000000293
:1053400003020200000020DE02000000000704004B
:10535000000000FF00000000000F00000002DE203F
:105360000000000407000000020102040402000023
:10537000000000000000000000000000000000002D
:1053800000000000000000F80000000000000033F2
:105390003000000000100C06100C06000000000099
:1053A0000000000040C07840C0784000043F040482
:1053B0003F040400007088FC08300000001820FF43
:1053C000211E0000F008F000E018000000211C037E
:1053D0001E211E0000F00888700000001E212324FA
:1053E0001927211010160E00000000000000000018
:1053F00000000000000000E01804020000000007A8
:105400001820400000020418E000000000402018AE
:1054100007000000404080F0804040000202010F81
:1054200001020200000000F0000000000101011F65
:1054300001010100000000000000000080B07000C9
:105440000000000000000000000000000001010159
:1054500001010101000000000000000000303000E8
:1054600000000000000000008060180400601806C2
:105470000100000000E010080810E000000F1020FC
:1054800020100F00001010F8000000000020203F46
:1054900020200000007008080888700000302824D0
:1054A0002221300000300888884830000018202071
:1054B00020110E000000C02010F800000007042496
:1054C000243F240000F808888808080000192120DB
:1054D00020110E0000E0108888180000000F112035
:1054E00020110E0000380808C83808000000003FEE
:1054F000000000000070880808887000001C22214D
:1055000021221C0000E010080810E00000003122F9
:1055100022110F00000000C0C00000000000003099
:1055200030000000000000800000000000008060EB
:10553000000000000000804020100800000102046C
:105540000810200040404040404040000404040453
:10555000040404000008102040800000002010080F
:1055600004020100007048080808F0000000003044
:1055700036010000C030C828E810E00007182724D2
:1055800023140B000000C038E0000000203C230280
:105590000227382008F8888888700000203F2020E3
:1055A00020110E00C0300808080838000718202015
:1055B0002010080008F808080810E000203F20200C
:1055C00020100F0008F88888E8081000203F2020ED
:1055D0002320180008F88888E8081000203F2000E1
:1055E00003000000C0300808083800000718202019
:1055F000221E020008F808000008F808203F2101D8
:1056000001213F20000808F8080800000020203F82
:105610002020000000000808F8080800C0808080F2
:105620007F00000008F888C028180800203F2001EB
:105630002638200008F8080000000000203F202045
:105640002020300008F8F800F8F80800203F003F5C
:10565000003F200008F830C00008F808203F200074
:1056600007183F00E01008080810E0000F10202085
:1056700020100F0008F808080808F000203F21015A
:1056800001010000E01008080810E0000F182424B1
:1056900038504F0008F8888888887000203F200024
:1056A000030C3020007088080808380000382021DA
:1056B00021221C00180808F8080818000000203FE4
:1056C0002000000008F808000008F808001F20204B
:1056D00020201F000878880000C83808000007381C
:1056E0000E010000F80800F80008F800033C07006D
:1056F000073C0300081868808068180820302C03D5
:10570000032C30200838C800C83808000000203FAB
:105710002000000010080808C8380800203826219A
:1057200020201800000000FE020202000000007F9E
:1057300040404000000C30C00000000000000001AC
:105740000638C00000020202FE0000000040404097
:105750007F000000000004020202040000000000BC
:105760000000000000000000000000008080808039
:105770008080808000020204000000000000000021
:1057800000000000000080808080000000192422BA
:1057900022223F2008F8008080000000003F1120F6
:1057A00020110E000000008080800000000E1120FB
:1057B00020201100000000808088F800000E1120D9
:1057C00020103F200000808080800000001F2222E7
:1057D00022221300008080F0888888180020203F53
:1057E000202000000000808080808000006B949466
:1057F0009493600008F8008080800000203F210022
:1058000000203F2000809898000000000020203FEA
:1058100020200000000000809898000000C08080D8
:10582000807F000008F8000080808000203F240274
:105830002D302000000808F8000000000020203F64
:10584000202000008080808080808000203F200019
:105850003F20003F8080008080800000203F2100AA
:1058600000203F200000808080800000001F20205A
:1058700020201F00808000808000000080FFA12089
:1058800020110E000000008080808000000E11209A
:1058900020A0FF80808080008080800020203F2129
:1058A00020000100000080808080800000332424DC
:1058B00024241900008080E0808000000000001F88
:1058C000202000008080000000808000001F202039
:1058D00020103F20808080000080808000010E30FA
:1058E0000806010080800080008080800F300C035B
:1058F0000C300F0000808000808080000020312E5E
:105900000E312000808080000080808080818E7039
:105910001806010000808080808080000021302CEB
:105920002221300000000000807C02020000000004
:10593000003F404000000000FF00000000000000A9
:10594000FF0000000002027C800000000040403F99
:105950000000000000060101020204040000000033
:105960000000000000000000000000000000000037
:105970000000000000000000000000000000000027
:1059800000000000000000000000000000F0F0F047
:10599000000000000000000000017F010000000086
:1059A00000000000001C1C1C0000000000008060C3
:1059B000301C8C60301C0C00000000000000000057
:1059C00000000000000000000000000000000000D7
:1059D000000000E00000000000E000000086E69FFC
:1059E00086868686E69F860000011F01010101016F
:1059F0001F010100000080C06020F820E0C000000E
:105A0000000003070C18FF70E18100000000070F81
:105A100010107F100F0700008060206080000000E1
:105A2000E02000000F3020309F70DC371030C000C5
:105A30000000100E03000718101807000000C02017
:105A400020E0C0000000000080E01F38E88703C4A9
:105A50003C040000070F1810100B070D1010080071
:105A600000808C4C380000000000000000000000A6
:105A70000000000000000000000000000000000026
:105A80000000000000000000000080E0300804007A
:105A90000000000000FEFF01000000000000000008
:105AA0000000030F1820400000040830E0800000D0
:105AB000000000000000000001FFFE0000000000E8
:105AC000004020180F03000000000000000000004C
:105AD0000000C00000000000004266663C18FF188D
